:03000000020003F8
:0C000300787FE4F6D8FD75813402004AD5
:02014000AD0709
:10014200E4FB7E007480A803088006CEA2E713CEEB
:1001520013D8F8FFEDF582EF558224FF92B4D2B6A0
:0A016200C2B60BBB08DCD2B5C2B573
:01016C002270
:0501F700C2B6C2B522F2
:10018E00AA07AF05120140AF02A8077480088002CB
:10019E00C313D8FCF4F5807F011201AE7580FF22E7
:0C01BE007F047E817D77DDFEDEFCDFFA31
:0101CA002212
:0801E5007F247ED9DEFEDFFC61
:0101ED0022EF
:0C01CB007F027E677D93DDFEDEFCDFFA24
:0101D7002205
:0C01D8007F037E507DA9DDFEDEFCDFFA17
:0101E40022F8
:0801EE007F027EC7DEFEDFFC8C
:0101F60022E6
:0201AE00AD079B
:0D01B000E4FCECC39D50061201EE0C80F53E
:0101BD00221F
:100111002028090000000000000000FF080808FF77
:10012100000E1515150800FE010200FE0102000E69
:0E0131001111110E0000FD0000000001080574
:10016D0012008FEF24FE600D14600D14600D24033A
:10017D00700C7F0A227F05227F03227F0222AF08A7
:01018D00224F
:1000D100E4F531753203F5331201F712016D8F0822
:1000E100E4F531E53125322409F8E6FD7C00AF3134
:1000F10012018E0531E531C3940840E7AF33053372
:10010100EFD3950840D5E4F533053253321F80CB48
:10008F00E4F53420B10C1201E530B1FD1201E57534
:10009F00340120B00C1201E530B0FD1201E57534CA
:1000AF000220B20C1201E530B2FD1201E5753403E6
:1000BF0020B30C1201E530B3FD1201E5753404AF26
:0100CF0034FC
:0100D000220D
:10000F000200D1E493A3F8E493A34003F68001F236
:10001F0008DFF48029E493A3F85407240CC8C333F2
:10002F00C4540F4420C8834004F456800146F6DFC1
:10003F00E4800B0102040810204080900111E47E3F
:10004F00019360BCA3FF543F30E509541FFEE493B6
:10005F00A360010ECF54C025E060A840B8E493A37D
:10006F00FAE493A3F8E493A3C8C582C8CAC583CAA8
:10007F00F0A3C8C582C8CAC583CADFE9DEE780BE60
:01013F0000BF
:00000001FF
