:03000000020518DE
:0C051800787FE4F6D8FD75815F02055F76
:02083E00AD0704
:10084000E4FB7E007480A803088006CEA2E713CEE6
:1008500013D8F8FFEDF582EF558224FF92B4D2B69B
:0A086000C2B60BBB08DCD2B5C2B56E
:01086A00226B
:050B1E00C2B6C2B522C1
:100A7200AC0512083EAF04A8077480088002C313B5
:060A8200D8FCF4F580220F
:02090B00AC0737
:10090D00E4FFAE05A80604088002C333D8FC4207F5
:10091D0012083EAF04A8077480088002C313D8FCE8
:03092D00F4F5805E
:0109300022A4
:0A099900E4FDFCC3ED9FEC9E50133B
:0C09A30075130F75145AD514FDD513FA06
:0709AF000DBD00010C80E604
:0109B600221E
:0A0A4200E4FDFCC3ED9FEC9E500D97
:060A4C00753119D531FDE2
:070A52000DBD00010C80EC5A
:010A5900227A
:030023000206587A
:10065800C0E0C0F0C083C082C0D075D000C000C068
:1006680001C002C003C004C005C006C00730980D11
:10067800C2987B007A00794AAD99120760D007D0FA
:1006880006D005D004D003D002D001D000D0D0D0FD
:0806980082D083D0F0D0E032E3
:10024C00751105E4F512750C01750F0212060B7C85
:10025C00007DFF12017E8D0B750D00750E46120B85
:10026C001E120A0D754B02754A047549087B007AFB
:10027C00007948AD0B120B23E5127056FD7F01126D
:10028C0008BD8F111209D58F12E512146044146049
:10029C000E1460231470E1120B27E4F51280D9E4DC
:1002AC00F512F516751700751811FB7A00790D12F9
:1002BC0003F2EF70C380E0E4F512F51675170075C4
:1002CC001811FB7A00790F120486EF60CA850F0CA7
:1002DC0080A6E4FD7F011208BD8F117B007A0079A6
:1002EC004AAD111207D77516007517007518488599
:1002FC000D19850E1A7B007A00794A1206E27B00F2
:10030C007A0079481206A075160075170075184802
:10031C00751900751A00751B08751C00751D007584
:10032C001E0A7B007A00794A1205A41200038F1072
:10033C00E510601B7F037E0012086BE4F5107F64F0
:10034C00FE120999E51070071200038F1080F5E575
:10035C000AC3950C50030202DEE4FFFE12064DE5C3
:10036C000A254EF54EE4F512120AB2E512600302AC
:10037C0002DEAD09AC087F0712079CE54EFD7C0040
:10038C007F0312079CE4FD7F011208BD8F11120937
:10039C00D58F12E51224FE601A14602F14600C2401
:1003AC000370C8E4F50AF5120202DE120B27E4F51D
:1003BC001280B8E4F512F516751700751811FB7A52
:1003CC0000790D1203F2EF70A280E0E4F512F5163D
:1003DC00751700751811FB7A00790F120486EF60FF
:0603EC00CA850F0C80859C
:0E0AD500120048FF900001120061FD020A723B
:040B2300ED0200E3FC
:0606A0008B138A1489157A
:1006A600900001120061D364809480502112060BE1
:1006B6007C007DFF12017EAB13AA14A915120B2331
:1006C600AB13AA14A91590000174081200F5AB1318
:0C06D600AA14A91590000174FF0200B0E6
:0309B700015D05DA
:1008BD00EF602120B1037F002220B0037F012220B1
:1008CD00B2037F022220B3037F0322BD0103AF5D7C
:0708DD00227F05227F0422A7
:1007D7008B138A148915ED14601314601914601FA4
:1007E70024037024AB13AA14A9150209F2AB13AAA8
:1007F70014A915020A28AB13AA14A915020931ABCB
:0908070013AA14A91512095522C7
:1009D500EF14600D14600D14600D2403700C7F017D
:0D09E500227F04227F02227F03227F002256
:0E0AE300900001120061FF120048FD02090B95
:1009F200740112008E120048C3648094884005740A
:0B0A0200071200E37F1E7E0002086B5D
:100A280074FF12008E120048C3648094805004E45E
:0A0A38001200E37F1E7E0002086B2F
:1009310090000174FF1200B0900001120061C364C5
:10094100809481500890000174011200F57F1E7E91
:040951000002086B2D
:1009550090000174011200B0900001120061C3649F
:10096500809485400890000174051200F57F1E7E75
:040975000002086B09
:0606E2008B138A14891538
:1006E800E4F51BF51C051CE51CAE1B7002051B146C
:1006F800C3951AEE95195022AB13AA14A915120A1C
:10070800E37F287E00120A42AB16AA17A918120A1C
:0A071800D57F287E00120A4280CB34
:0107220022B4
:0B0AFF001201B4FDACF07F0702079C61
:0C09BA000A3E3F065B4F666D7D077F6FB5
:10081000C374039FFF54041313543F24FF92A4EFA7
:100820005402C31324FF92A3EF1392A2743E2DF837
:0D083000E6F5807F0A7E00120A42E4F580A2
:01083D002298
:02079C008F1BB1
:10079E008C1D8D1EE4F51CE51E451D602BC3E51B4F
:1007AE00951CFFC007AE1DAF1E7C007D0A120129ED
:1007BE00D007120810AE1DAF1E7C007D0A12012953
:0807CE008E1D8F1E051C80CF5B
:0107D6002200
:040B2700E4F580224F
:060AC600C2A58F80D2A73B
:080ACC007F027EEFDEFEDFFC7D
:010AD40022FF
:0A0B0A00C2A6120AC6C2A7020ACC56
:0A0B1400D2A6120AC6C2A7020ACC3C
:100A8800AE07BE0104ED148006BE0209ED243F4402
:060A980080FF120B0A2290
:100A9E007F38120B0A7F0C120B0A7F06120B0A7F8D
:040AAE0001020B0A2C
:0808E4008E558F568C578D587C
:1008EC007F017E00E4FBEBC39558E5576480F874F8
:0E08FC008098500AAC55AD561201170B80E8DB
:01090A0022CA
:040723008A528B5318
:10072700120A88AA54EAD39400402DEA24FFFDE474
:1007370034FFFC7F0A7E001208E4AC52AD53CFCDE4
:10074700CFCECCCE1201297C007D0A120129ED24DF
:0807570030FF120B141A80CDD3
:01075F002277
:04086B008E2D8F2E11
:10086F00752F00753064E5301530AE2F7002152FDF
:10087F00D39400EE9400400BB2A5AF2EAE2D120A0A
:05088F004280E3C2A558
:010894002241
:100AB20075130AAF137E0012086B0513E513C39476
:030AC2001440F0ED
:010AC500220E
:0E09C6000C320096005A0046001E0014000A73
:100895008B1F8A2089217F0A7E0012086BAB1FAA55
:1008A50020A921900001120061FF3395E0AB22AA37
:0808B50023A9248FF00201DFEA
:100A5A008B1F8A2089217F647E0012086BAB1FAA34
:080A6A0020A921740102008E95
:1005A4008B138A148915AB16AA17A9189000011287
:1005B4000061FFAB13AA14A9159000011200616F2A
:1005C4007044120048FF7E007401A807088005C328
:1005D40033CE33CED8F9FFAB16AA17A918120048A8
:1005E400FD3395E05EFEEF5D4E6009AB1CAA1DA9CC
:1005F4001E020A5A851922851A23851B24AB13AAC5
:0706040014A915120895224C
:0603F2008B138A1489152B
:1003F800AB16AA17A918120048F51AE51A6071ABCE
:1004080013AA14A9151201B4FDACF07F0312079CBE
:10041800E4FD7F011208BD8F1AE51A14603324FE2B
:10042800601504703230B2FD0519E51975F0061231
:10043800002685F019801130B3FD1519C3E519643C
:100448008094805003E4F5197F0A7E0012086B80BF
:100458000630B0FD7F0022E51925E02432F8E6FFDA
:1004680008E6AB13AA14A915CF8FF0120217808BD8
:0D047800AB16AA17A91874051200E37F0146
:010485002254
:060486008B138A14891596
:10048C00AB16AA17A918120048F519E519606FAB3D
:10049C0013AA14A915120048FD7C007F0312079CB7
:1004AC00E4FD7F011208BD8F19E51914604A24FE82
:1004BC0060250470D630B2FDAB13AA14A915120036
:1004CC004875F00384E5F01200E3AB13AA14A915E8
:1004DC00740112008E801830B3FDAB13AA14A91549
:1004EC0074FF12008ED39400500574011200E37F48
:1004FC000A7E0012086B809330B0FD7F0022AB1691
:0B050C00AA17A91874051200E37F0174
:0105170022C1
:100A0D0053877F75985053890F438920758BFA75DD
:0B0A1D008DFAC2ABD28ED2AFD2AC2259
:100760008B2A8A2B892CED249F601E24FD60232474
:10077000F1600D24FC7024AB2AAA2BA92C0209F2EB
:10078000AB2AAA2BA92C020A28AB2AAA2BA92C0235
:0C0790000931AB2AAA2BA92C1209552212
:1000030075900FAF9053070FEF640F6010AF9053CD
:0F001300070FEF640E70037F01227F00227F0032
:0100220022BB
:1009790075900FAF905307E0EF64E06010AF9053AC
:0F098900070FEF640E70037F01227F00227F00B3
:01099800223C
:0D0AF100E4FF7D01ED6006120003BF01F778
:010AFE0022D5
:1005240002024CE493A3F8E493A34003F68001F29F
:1005340008DFF48029E493A3F85407240CC8C333D8
:10054400C4540F4420C8834004F456800146F6DFA7
:10055400E4800B01020408102040809009B7E47E77
:10056400019360BCA3FF543F30E509541FFEE4939C
:10057400A360010ECF54C025E060A840B8E493A363
:10058400FAE493A3F8E493A3C8C582C8CAC583CA8E
:10059400F0A3C8C582C8CAC583CADFE9DEE780BE46
:0109D4000022
:10002600C2D530F707B2D563F0FF05F030E70CB262
:10003600D5F4048463F0FF05F080018430D502F422
:02004600042292
:10004800BB010689828A83E0225002E722BBFE02B6
:09005800E32289828A83E49322E9
:10006100BB010CE58229F582E5833AF583E0225054
:1000710006E92582F8E622BBFE06E92582F8E2229E
:0D008100E58229F582E5833AF583E49322B8
:10008E00BB010989828A83F8E028F022500327F702
:10009E0022BBFE05F8E328F3228A838982F8E493D3
:0200AE00282206
:1000B000BB010FF8E58229F582E5833AF583E02854
:1000C000F0225009C58229F8E58226F622BBFE09F6
:1000D000C58229F8E22582F222F8EA2583F583E930
:0300E00093282240
:1000E300BB010689828A83F0225002F722BBFE01FC
:0200F300F322F6
:1000F500F8BB010DE58229F582E5833AF583E8F041
:10010500225006E92582C8F622BBFE05E92582C8EC
:02011500F222D4
:10011700EF8DF0A4A8F0CF8CF0A428CE8DF0A42EFC
:02012700FE22B6
:10012900BC000BBE0029EF8DF084FFADF022E4CCBA
:10013900F875F008EF2FFFEE33FEEC33FCEE9DEC83
:10014900984005FCEE9DFE0FD5F0E9E4CEFD22EDC9
:10015900F8F5F0EE8420D21CFEADF075F008EF2F13
:10016900FFED33FD4007985006D5F0F222C398FD04
:050179000FD5F0EA22A1
:10017E00C2D5EC30E709B2D5E4C39DFDE49CFCEE9C
:10018E0030E715B2D5E4C39FFFE49EFE120129C3EA
:10019E00E49DFDE49CFC800312012930D507C3E4E5
:0601AE009FFFE49EFE220B
:1001B400BB010A89828A83E0F5F0A3E02250068716
:1001C400F009E71922BBFE07E3F5F009E3192289D8
:0B01D400828A83E493F5F0740193220B
:1001DF00BB010789828A83020236500B09C5F027BB
:1001EF00F7C5F01937F722BBFE0D09F8E325F0F339
:1001FF00C5F019E338F322F889828A8374019325B5
:08020F00F0C5F0F8E493382279
:10021700BB010A89828A83F0E5F0A3F0225006F732
:0F02270009A7F01922BBFE06F3E5F009F319222F
:10060B00AC59AD5AAE5BAF5C7810EC4D4E4F7004ED
:10061B007CA57DA5C3EC13FCED13FDEE13FEEF13D0
:10062B00FF5010EC64CCFCED644CFDEE644EFEEF21
:10063B0064CEFFD8DF8C598D5A8E5B8F5CEE547F66
:0D064B00FE228E598F5A74A5F55BF55C22D6
:10023600C5F0F8A3E028F0C5F0F8E5821582700253
:060246001583E038F022F0
:00000001FF
