:030000000200A259
:0C00A200787FE4F6D8FD75812A0200E9A1
:1003A30054696D657220484552450020203A20204B
:0403B3003A202000CC
:09040100041500000000011900BF
:10012E001203761203B77BFF7A0379A37D017F0159
:10013E001203187BFF7A0379AE7D017F021203183A
:10014E001201C98F19E51924FE600C14600E2402E9
:10015E00701175180180E9E4F51880E4E4F515F5E1
:0E016E0017F516AB17AD16AF151202E980D2C9
:03000B0002017C73
:04017C00C0E0C0D04F
:10018000758A18758CFC0514E51470020513C39468
:10019000E8E5139403402D751300751400E5186409
:1001A0000160210515E515943C40197515000516EB
:1001B000E516943C400E7516000517E51794184097
:0401C00003751700AC
:0501C400D0D0D0E032B4
:0603CB00C2A58F80D2A73D
:0803D1007F027EEFDEFEDFFC7F
:0103D9002201
:0A040B00C2A61203CBC2A70203D160
:10033B00CFCDCFCECCCE12004D7C007D0A12004D1E
:04034B00ED2430FF6E
:0A034F00D2A61203CBC2A70203D10D
:10038D00AE07BE0104ED148006BE0209ED243F4404
:06039D0080FF12040B2298
:1003B7007F3812040B7F0C12040B7F0612040B7F8D
:0403C7000102040B20
:0A041500AC0312038DAF0402034F85
:060318008B088A09890A26
:10031E0012038DE4FDAB08AA09A90A8D827583002C
:0C032E0012000EFF600612034F0D80E964
:01033A0022A0
:0C02B6007F0AEA24FFFDE434FFFC7E0018
:0802C2008E0F8F108C118D12BC
:1002CA007F017E00E4FBEBC39512E5116480F874AC
:0E02DA008098500AAC0FAD1012003B0B80E86C
:0102E80022F3
:040359008A0C8B0D72
:10035D0012038DAA0EEAD39400400D1202B6AC0C16
:08036D00AD0D12033B1A80EDF7
:010375002265
:10020B0012038DC3EA64809480400B7F2B12034F43
:10021B008A1F8B20800E7F2D12034FC3E49BF5208A
:10022B00E49AF51FAA1EEAD39400400D1202B6AC55
:09023B001FAD2012033B1A80EDF7
:010244002297
:040245008A238B2459
:1002490012038DAA25EAD3940040297F101202B81F
:10025900AC23AD24CFCDCFCECCCE12004DEF540F71
:10026900FEC3940AEE5004243080022437FF12039F
:040279004F1A80D1C7
:01027D00225E
:04027E008A288B2916
:1002820012038DAA2AEAD394004028EA24FFFDE44F
:1002920034FFFC7F027E001202C2AC28AD29CFCD12
:1002A200CFCECCCE12004DEF54012430FF12034FBB
:0302B2001A80D2DD
:0102B5002226
:100376005389F0438901758A18758CFCC28DD28C1D
:07038600D2A9D2AFC2B922D7
:1001C900E4F50820B10C12041F30B1FD12041F75AB
:1001D900080120B00C12041F30B0FD12041F75086D
:1001E9000220B20C12041F30B2FD12041F7508035D
:1001F90020B30C12041F30B3FD12041F750804AF9D
:0102090008EC
:01020A0022D1
:0C03DA007F047E817D77DDFEDEFCDFFA13
:0103E60022F4
:08041F007F247ED9DEFEDFFC24
:0104270022B2
:0C03E7007F027E677D93DDFEDEFCDFFA06
:0103F30022E7
:0C03F4007F037E507DA9DDFEDEFCDFFAF9
:0104000022D9
:1002E9008F088D09EB7A00750E027D017F021203DA
:1002F90059E509FB7A00750E027D047F0212035944
:0F030900E508FB7A00750E027D077F020203599B
:1000AE0002012EE493A3F8E493A34003F68001F239
:1000BE0008DFF48029E493A3F85407240CC8C33353
:1000CE00C4540F4420C8834004F456800146F6DF22
:1000DE00E4800B0102040810204080900401E47EAD
:1000EE00019360BCA3FF543F30E509541FFEE49317
:1000FE00A360010ECF54C025E060A840B8E493A3DE
:10010E00FAE493A3F8E493A3C8C582C8CAC583CA08
:10011E00F0A3C8C582C8CAC583CADFE9DEE780BEC0
:01040A0000F1
:10000E00BB010CE58229F582E5833AF583E02250A7
:10001E0006E92582F8E622BBFE06E92582F8E222F1
:0D002E00E58229F582E5833AF583E493220B
:10003B00EF8DF0A4A8F0CF8CF0A428CE8DF0A42ED9
:02004B00FE2293
:10004D00BC000BBE0029EF8DF084FFADF022E4CC97
:10005D00F875F008EF2FFFEE33FEEC33FCEE9DEC60
:10006D00984005FCEE9DFE0FD5F0E9E4CEFD22EDA6
:10007D00F8F5F0EE8420D21CFEADF075F008EF2FF0
:10008D00FFED33FD4007985006D5F0F222C398FDE1
:05009D000FD5F0EA227E
:00000001FF
